:100000000C9434000C9451000C9451000C94BD03DA
:100010000C94F1030C9487030C9451000C94510040
:100020000C9451000C9451000C9451000C9451000C
:100030000C9451000C9427040C9451000C94510022
:100040000C9451000C9451000C9451000C945100EC
:100050000C9451000C9451000C9451000C945100DC
:100060000C9451000C94510011241FBECFEFD8E026
:10007000DEBFCDBF11E0A0E0B1E0ECEAF7E102C0E5
:1000800005900D92A838B107D9F721E0A8E8B1E0B2
:1000900001C01D92A839B207E1F70E9436040C9402
:1000A000D40B0C940000609184007091850090E066
:1000B00080E00E94E10620E030E040E852E40E9447
:1000C000420720E030E04AE754E40E94350920E08E
:1000D00030E0A9010E94DD096091840070918500E3
:1000E00090E087FD19C080E00E94E10620E030E04A
:1000F00040E852E40E94420720E030E04AE754E43E
:100100000E94350920E030E040E05FE30E94C9082A
:100110000E94A709CB01089580E00E94E10620E03B
:1001200030E040E852E40E94420720E030E04AE735
:1001300054E40E94350920E030E040E05FE30E9493
:10014000C808E6CF8091880190918901019690932B
:1001500089018093880183ED9CEF909385008093C3
:10016000840085B12091000130910101807E822BB5
:1001700085B98091000190910101959587959093A3
:100180000101809300018091000190910101892B70
:1001900031F484E090E0909301018093000120917C
:1001A00088013091890180918A0190918B012817F3
:1001B000390799F480916F008E7F80936F001092C1
:1001C00089011092880184E090E09093010180936E
:1001D000000110928500109284000895E0EBF0E099
:1001E00080818F7780838081806480830895E0EBB5
:1001F000F0E080818F77808380818F7B808308957A
:10020000FC0180819181009711F00C947E0A089581
:10021000EF92FF920F931F93CF93DF93EC017B013B
:10022000198218821B821A821D821C82FB01019096
:100230000020E9F731978F01061B170BB8016F5F9C
:100240007F4F90E080E00E94070B0097B9F0998300
:1002500088831B830A832C813D81232B11F4FC01AD
:1002600010821D830C83B70188819981DF91CF9122
:100270001F910F91FF90EF900C94CD0B8881998185
:10028000009711F00E947E0A198218821D821C823A
:100290001B821A82DF91CF911F910F91FF90EF90F7
:1002A00008955E9A4BB190E09C0135952795359560
:1002B00027952C73437C242B2BB92C9A25E02A9567
:1002C000F1F700002C982BB1880F991F880F991F08
:1002D0008F73237C822B8BB92C9A85E08A95F1F75A
:1002E00000002C9887EC90E00197F1F700C0000027
:1002F0000895EF92FF920F931F93CF93DF93CDB7A3
:10030000DEB764970FB6F894DEBF0FBECDBF00977F
:10031000A9F09E012F5F3F4F7901F90130E020E005
:100320000AE010E018161906C4F4B8010E949A08F1
:1003300081939193CB012F5F3F4FF4CF80E364967D
:100340000FB6F894DEBF0FBECDBFDF91CF911F91E6
:100350000F91FF90EF900C945101220F331F8701F2
:10036000020F131F0E151F0541F002501109F8016D
:100370008081805D0E945101F5CF64960FB6F8949C
:10038000DEBF0FBECDBFDF91CF911F910F91FF90C8
:10039000EF9008955E989BB144E0849F90011124F2
:1003A000937C922B9BB92C9A85E08A95F1F70000FB
:1003B0002C9845ED4A95F1F7000008959AB19C6399
:1003C0009AB9569A249A5E984BB190E09C01359563
:1003D0002795359527952C73437C242B2BB92C9A84
:1003E00025E02A95F1F700002C982BB1880F991F72
:1003F000880F991F8F73237C822B8BB92C9A85E0F1
:100400008A95F1F700002C9825ED2A95F1F7000068
:1004100008950F931F93CF93DF93DC0114962D91D2
:100420003C912132310538F58C01D0E0C0E0F80173
:1004300084819581C817D907F0F4C031D10519F42A
:1004400080EC0E94DE01D80114968D919C91159745
:10045000C817D90720F4ED91FC91309749F4109218
:100460009301E3E9F1E080810E9451012196DFCF01
:10047000EC0FFD1FF8CFDF91CF911F910F910895E1
:100480000F931F93CF93DF9300D000D000D0CDB750
:10049000DEB78C0180EC0E94DE016CE371E0CE01DE
:1004A00001960E940801CE0101960E940902CE0128
:1004B00001960E94000180EC0E94DE01C8010E94AA
:1004C000790161E371E0CE0101960E940801CE013D
:1004D00001960E940902CE0101960E940001269613
:1004E0000FB6F894DEBF0FBECDBFDF91CF911F9145
:1004F0000F910895EF92FF920F931F93CF93DF9385
:1005000000D000D000D0CDB7DEB780EC0E94DE0175
:1005100064E371E0CE0101960E940801CE010196CC
:100520000E940902CE0101960E94000180EC0E9407
:10053000DE018AE20E945101F12CE12C10E000E082
:10054000F701EA5FFE4F8081803211F40F5F1F4F89
:1005500080919101909192018017910731F48081EF
:10056000803219F080810E94510180919101909117
:1005700092018017910724F08FEFE81AF80AE0CF74
:1005800026960FB6F894DEBF0FBECDBFDF91CF9198
:100590001F910F91FF90EF9008950E94EE0083EF5E
:1005A0008093B3002FE788E391E021508040904092
:1005B000E1F700C000000C94F70095B19770981314
:1005C0006DC085B1876085B980918F019091900150
:1005D0000E94400282E090E0909303018093020128
:1005E0000E94EE008BE08093B3002FEF83EF91E049
:1005F000215080409040E1F700C000000E94F700C9
:100600008FE59AEE0197F1F700C0000082E6809333
:10061000B3009FEF2BED85E0915020408040E1F743
:1006200000C000000E94F70020918F0130919001DE
:1006300080918C0190918D01281739070CF044C0EE
:1006400080918F019091900190938D0180938C0106
:100650008FB38F7C8FBBF999FECF07B600FCFBCF21
:1006600012BC11BC80918C0190918D0180BDF894D9
:10067000FA9AF99A7894F999FECF07B600FCFBCF65
:1006800081E090E092BD81BD80918C0190918D01BF
:1006900090BDF894FA9AF99A7894089581E090E0E0
:1006A00090930301809302010E94EE0083EA8093FD
:1006B000B3009FEF23EC89E0915020408040E1F7A8
:1006C00000C000000C94F70008950E9489062EE1F6
:1006D00030E040E050E00E9400086B5F7F4F709375
:1006E0008B0160938A01109289011092880183ED39
:1006F0009CEF909385008093840081E080938E012D
:10070000EFE6F0E08081816080830C94A2001F926C
:100710000F920FB60F9211242F933F934F935F9335
:100720006F937F938F939F93AF93BF93EF93FF93B9
:100730004F9912C082E090E09093050180930401EC
:100740008091020190910301892B31F40E945300A2
:100750009093900180938F01FF91EF91BF91AF91A2
:100760009F918F917F916F915F914F913F912F91C9
:100770000F900FBE0F901F9018951F920F920FB6FB
:100780000F9211242F933F934F935F936F937F9317
:100790008F939F93AF93BF93EF93FF931D9910C0D7
:1007A00010920501109204018091020190910301C1
:1007B000892B31F40E9453009093900180938F0114
:1007C000FF91EF91BF91AF919F918F917F916F9129
:1007D0005F914F913F912F910F900FBE0F901F90FF
:1007E00018951F920F920FB60F9211242F933F93DB
:1007F0004F935F936F937F938F939F93AF93BF9329
:10080000EF93FF93309912C081E090E0909305013F
:10081000809304018091020190910301892B31F4AE
:100820000E9453009093900180938F01FF91EF916C
:10083000BF91AF919F918F917F916F915F914F91F8
:100840003F912F910F900FBE0F901F9018951F9200
:100850000F920FB60F9211248F9381E080938E0137
:100860008F910F900FBE0F901F901895CF93DF932D
:1008700000D000D000D0CDB7DEB78AB18C638AB982
:10088000569A249A2FEF80E792E0215080409040C2
:10089000E1F700C0000083E00E94CA018FE19EE4FE
:1008A0000197F1F700C0000083E00E94CA0187E5CC
:1008B00092E00197F1F700C0000083E00E94CA01B6
:1008C00087E592E00197F1F700C0000082E00E9406
:1008D000CA0188E20E94DE018CE00E94DE0181E014
:1008E0000E94DE018FE39FE10197F1F700C0000055
:1008F00086E00E94DE0165E471E0CE0101960E946F
:100900000801CE0101960E940902CE0101960E94C3
:10091000000183E090E090930301809302018091B5
:10092000680087608093680080916B00806280938C
:100930006B0080916C00816080936C0080916D00F1
:10094000806880936D00389825985798409A2D9A22
:100950005F9A84B1876084B97894809180008C7F9D
:100960008093800080918100877E809381008091B8
:100970008100856080938100809181008D7F8093CC
:10098000810080916F00816080936F0083ED9CEF08
:1009900090938500809384000E947A02239A239A80
:1009A0008091B0008F778093B0008091B000806418
:1009B0008093B0008091B00082608093B0008091FD
:1009C000B0008E7F8093B0008091B100877F8093CC
:1009D000B1008091B10084608093B1008091B1003A
:1009E0008C7F8093B1001092B2001092B3000E94ED
:1009F000F70086E0E82EF12C03E010E092E0C92E2B
:100A0000D12C25E0A22EB12C34E0832E912CE09144
:100A10000201F0910301E730F105E8F7EE5EFA4FCD
:100A20000C94AE0801062506280619051C061C06AE
:100A30003406809104019091050181309105C1F146
:100A4000C0F0029721F74F9924C080E80E94DE0190
:100A500065E471E0CE0101960E940801CE01019685
:100A60000E940902CE0101960E9400010E947A02B2
:100A700010C01D990EC08091910190919201039731
:100A800069F410929201109291010E947A020E94E0
:100A9000CD021093050100930401B9CF809191011B
:100AA0009091920101969093920180939101EDCFE4
:100AB0003099EFCF2091910130919201232BE1F4F5
:100AC00010920301109202010E94650380E80E94C7
:100AD000DE0163E571E0CE0101960E940801CE01BE
:100AE00001960E940902CE0101960E94000190E049
:100AF00080E00E944002CBCF209191013091920181
:100B00002130310531F4239B02C02398C0CF239AB2
:100B1000BECF20919101309192012230310539F5FB
:100B2000909203018092020180E80E94DE0162E659
:100B300071E0CE0101960E940801CE0101960E944B
:100B40000902CE0101960E94000180EC0E94DE01A4
:100B500060E771E0CE0101960E940801CE01019686
:100B60000E940902CE0101960E94000190CF2091BF
:100B70009101309192012330310509F088CFB09274
:100B80000301A09202012FB327B712BC11BCF89A3F
:100B900020B530E030938D0120938C0192BD81BD52
:100BA000F89A20B580918C0190918D01922B9093B1
:100BB0008D0180938C0181E00E94DE018FE39FE133
:100BC0000197F1F700C0000080E80E94DE016DE7A8
:100BD00071E0CE0101960E940801CE0101960E94AB
:100BE0000902CE0101960E94000180EC0E94DE0104
:100BF00080918C0190918D010E94790161E371E0F7
:100C0000A9CF80918E01882321F00E94A20010922A
:100C10008E0180910401909105018130910531F0A0
:100C200048F0029709F0F3CE81E001C082E00E9413
:100C3000DD022FCF84E0FBCFD0920501C0920401EA
:100C40001093030100930201E2CE85B1887F85B93C
:100C50008091040190910501039709F4D8CEF09298
:100C60000301E092020115CF1092030110920201DC
:100C70000E94CD020E946503CACE8F929F92AF92CE
:100C8000BF92CF92DF92EF92FF92CF93DF93EC016E
:100C9000688179818A819B81611571058105910542
:100CA00021F464E279ED8BE597E02DE133EF41E04B
:100CB00050E00E94000849015A019B01AC01A7EADB
:100CC000B1E40E941F086B017C01ACEEB4EFA501FA
:100CD00094010E942D08C60ED71EE81EF91EF7FECD
:100CE00006C081E0C81AD108E10880E8F80AC88285
:100CF000D982EA82FB82C701B6019F77DF91CF914B
:100D0000FF90EF90DF90CF90BF90AF909F908F902B
:100D100008958F929F92AF92BF92CF92DF92EF92FF
:100D2000FF92609127017091280180912901909193
:100D30002A01611571058105910521F464E279EDBF
:100D40008BE597E02DE133EF41E050E00E94000891
:100D500049015A019B01AC01A7EAB1E40E941F08B6
:100D60006B017C01ACEEB4EFA50194010E942D084B
:100D7000C60ED71EE81EF91EF7FE06C081E0C81A8F
:100D8000D108E10880E8F80AC0922701D092280132
:100D9000E0922901F0922A01C701B6019F77FF90E6
:100DA000EF90DF90CF90BF90AF909F908F9008957D
:100DB00060932701709328018093290190932A0161
:100DC0000895E89409C097FB3EF49095809570953E
:100DD00061957F4F8F4F9F4F9923A9F0F92F96E987
:100DE000BB279395F695879577956795B795F111FC
:100DF000F8CFFAF4BB0F11F460FF1BC06F5F7F4F99
:100E00008F4F9F4F16C0882311F096E911C07723AA
:100E100021F09EE8872F762F05C0662371F096E8B3
:100E2000862F70E060E02AF09A95660F771F881F82
:100E3000DAF7880F9695879597F90895990F000826
:100E4000550FAA0BE0E8FEEF16161706E807F9079C
:100E5000C0F012161306E407F50798F0621B730B37
:100E6000840B950B39F40A2661F0232B242B252BB8
:100E700021F408950A2609F4A140A6958FEF811D5B
:100E8000811D08950E9455070C94C6070E94B8075B
:100E900038F00E94BF0720F0952311F00C94AF07A3
:100EA0000C94B50711240C94FA070E94D70770F32D
:100EB000959FC1F3950F50E0551F629FF001729FFF
:100EC000BB27F00DB11D639FAA27F00DB11DAA1F0E
:100ED000649F6627B00DA11D661F829F2227B00D5B
:100EE000A11D621F739FB00DA11D621F839FA00DE6
:100EF000611D221F749F3327A00D611D231F849F36
:100F0000600D211D822F762F6A2F11249F5750408C
:100F10009AF0F1F088234AF0EE0FFF1FBB1F661F07
:100F2000771F881F91505040A9F79E3F510580F0D0
:100F30000C94AF070C94FA075F3FE4F3983ED4F3A8
:100F4000869577956795B795F795E7959F5FC1F774
:100F5000FE2B880F911D9695879597F9089597F91F
:100F60009F6780E870E060E008959FEF80EC08954F
:100F700000240A9416161706180609060895002478
:100F80000A9412161306140605060895092E0394F2
:100F9000000C11F4882352F0BB0F40F4BF2B11F466
:100FA00060FF04C06F5F7F4F8F4F9F4F089557FDC5
:100FB0009058440F551F59F05F3F71F04795880FC7
:100FC00097FB991F61F09F3F79F08795089512165E
:100FD00013061406551FF2CF4695F1DF08C016160A
:100FE00017061806991FF1CF8695710561050894BB
:100FF0000895E894BB2766277727CB0197F90895D2
:10100000052E97FB1EF400940E94170857FD07D089
:101010000E94690807FC03D04EF40C941708509501
:101020004095309521953F4F4F4F5F4F08959095D4
:101030008095709561957F4F8F4F9F4F08950E94C7
:101040008B08A59F900DB49F900DA49F800D911DBE
:1010500011240895B7FF0C941F080E941F08821BDB
:10106000930B08952F923F924F925F926F927F92CF
:101070008F929F92AF92BF92CF92DF92EF92FF92A8
:101080000F931F93CF93DF93CDB7DEB7CA1BDB0B54
:101090000FB6F894DEBF0FBECDBF09942A883988F9
:1010A00048885F846E847D848C849B84AA84B98400
:1010B000C884DF80EE80FD800C811B81AA81B9810C
:1010C000CE0FD11D0FB6F894DEBF0FBECDBFED0120
:1010D0000895A1E21A2EAA1BBB1BFD010DC0AA1F79
:1010E000BB1FEE1FFF1FA217B307E407F50720F091
:1010F000A21BB30BE40BF50B661F771F881F991F0C
:101100001A9469F760957095809590959B01AC0154
:10111000BD01CF010895A29FB001B39FC001A39F5D
:10112000700D811D1124911DB29F700D811D112420
:10113000911D089597FB072E16F4009407D077FDB4
:1011400009D00E94B40807FC05D03EF49095819523
:101150009F4F0895709561957F4F0895EE0FFF1F83
:101160000590F491E02D0994AA1BBB1B51E107C027
:10117000AA1FBB1FA617B70710F0A61BB70B881F27
:10118000991F5A95A9F780959095BC01CD010895B6
:101190005058BB27AA270E94E0080C94C6070E945B
:1011A000B80738F00E94BF0720F039F49F3F19F4C8
:1011B00026F40C94B5070EF4E095E7FB0C94AF070A
:1011C000E92F0E94D70758F3BA17620773078407FD
:1011D000950720F079F4A6F50C94F9070EF4E09544
:1011E0000B2EBA2FA02D0B01B90190010C01CA01E1
:1011F000A0011124FF27591B99F0593F50F4503E8C
:1012000068F11A16F040A22F232F342F4427585F7D
:10121000F3CF469537952795A795F0405395C9F795
:101220007EF41F16BA0B620B730B840BBAF091504D
:10123000A1F0FF0FBB1F661F771F881FC2F70EC0EC
:10124000BA0F621F731F841F48F4879577956795BF
:10125000B795F7959E3F08F0B0CF9395880F08F0AB
:101260009927EE0F9795879508950E9449090C9448
:10127000C6070E94BF0758F00E94B80740F029F443
:101280005F3F29F00C94AF0751110C94FA070C94AE
:10129000B5070E94D70768F39923B1F3552391F35B
:1012A000951B550BBB27AA2762177307840738F0D5
:1012B0009F5F5F4F220F331F441FAA1FA9F335D032
:1012C0000E2E3AF0E0E832D091505040E695001CE6
:1012D000CAF72BD0FE2F29D0660F771F881FBB1FA0
:1012E000261737074807AB07B0E809F0BB0B802D7E
:1012F000BF01FF2793585F4F3AF09E3F510578F0AA
:101300000C94AF070C94FA075F3FE4F3983ED4F3D4
:10131000869577956795B795F7959F5FC9F7880F7D
:10132000911D9695879597F90895E1E0660F771FCF
:10133000881FBB1F621773078407BA0720F0621B60
:10134000730B840BBA0BEE1F88F7E09508950E948B
:10135000AE096894B1110C94FA0708950E94DF0752
:1013600088F09F5798F0B92F9927B751B0F0E1F066
:10137000660F771F881F991F1AF0BA95C9F714C016
:10138000B13091F00E94F907B1E008950C94F9078B
:10139000672F782F8827B85F39F0B93FCCF386954F
:1013A00077956795B395D9F73EF4909580957095AC
:1013B00061957F4F8F4F9F4F08950E941E0708F43D
:1013C0008FEF08950F931F93CF93DF938230910592
:1013D00010F482E090E0E0919601F091970130E006
:1013E00020E0B0E0A0E0309799F42115310509F430
:1013F0004AC0281B390B24303105D8F58A819B81DE
:101400006115710589F1FB0193838283FE0111C08F
:10141000408151810281138148175907E0F0481734
:10142000590799F4109761F012960C93129713963E
:101430001C933296CF01DF91CF911F910F910895A8
:101440000093960110939701F4CF2115310551F0C7
:101450004217530738F0A901DB019A01BD01DF01F2
:10146000F801C1CFEF01F9CF9093970180939601D6
:10147000CDCFFE01E20FF31F8193919322503109EA
:1014800039832883D7CF2091940130919501232B64
:1014900041F420912D0130912E013093950120933C
:1014A000940120912B0130912C012115310541F43B
:1014B0002DB73EB740912F0150913001241B350BC1
:1014C000E0919401F0919501E217F307A0F42E1B2F
:1014D0003F0B2817390778F0AC014E5F5F4F241798
:1014E000350748F04E0F5F1F5093950140939401CC
:1014F000819391939FCFF0E0E0E09CCFCF93DF9377
:101500000097E9F0FC01329713821282A0919601B4
:10151000B0919701ED0130E020E01097A1F4208117
:101520003181820F931F20919401309195012817EA
:10153000390709F061C0F0939501E0939401DF91C0
:10154000CF910895EA01CE17DF07E8F54A815B8164
:101550009E0141155105B1F7E901FB83EA834991E9
:101560005991C40FD51FEC17FD0761F4808191815B
:101570000296840F951FE901998388838281938164
:101580009B838A83F0E0E0E012968D919C91139703
:101590000097B9F52D913C911197CD010296820FDC
:1015A000931F20919401309195012817390739F63E
:1015B000309751F51092970110929601B0939501D2
:1015C000A0939401BCCFD383C28340815181840F07
:1015D000951FC817D90761F44E5F5F4F88819981C5
:1015E000480F591F518340838A819B819383828353
:1015F0002115310509F0B0CFF0939701E0939601E2
:101600009ECFFD01DC01C0CF13821282D7CFB0E0A4
:10161000A0E0EDE0FBE00C9434088C01009751F45D
:10162000CB010E94E2098C01C801CDB7DEB7E0E131
:101630000C945008FC01E60FF71F9C012250310961
:10164000E217F30708F49DC0D901CD91DC91119701
:10165000C617D70798F0C530D10530F3CE010497EF
:101660008617970708F3C61BD70B2297C193D19310
:101670006D937C93CF010E947E0AD6CF5B01AC1A9A
:10168000BD0A4C018C0E9D1EA0919601B091970150
:10169000512C412CF12CE12C109731F580919401C3
:1016A000909195018815990509F05CC0461657067A
:1016B00008F058C080912B0190912C01009741F4C3
:1016C0008DB79EB740912F0150913001841B950B2F
:1016D000E817F90708F055C0F0939501E0939401DD
:1016E000F90171836083A0CF8D919C91119712961F
:1016F0006C90129713967C901397A815B90559F51D
:101700006C0142E0C40ED11CCA14DB0420F1AC0110
:101710004A195B09DA011296159780F0628273828A
:1017200051834083D9016D937C93E114F10471F0EE
:10173000D7011396FC93EE93129776CF22968C0FD7
:101740009D1FF90191838083F301EFCFF0939701FF
:10175000E093960169CF4816590608F42C017D01E3
:10176000D3019ACFCB010E94E2097C01009749F096
:10177000AE01B8010E94C40BC8010E947E0A870115
:1017800053CF10E000E050CFFB01DC0102C001901C
:101790000D9241505040D8F70895FB01DC010190B3
:0C17A0000D920020E1F70895F894FFCFAF
:1017AC00040003000300504C4159204D5554452F63
:1017BC00554E4D5554452041424F555420484947AC
:1017CC004853434F5245200100000000009801800F
:1017DC00006D73002020202020202020202020209D
:1017EC0020202020005265616374696F6E20476170
:1017FC006D65005265616374696F6E2054696D6527
:10180C003A00412073696D706C652047616D65000D
:10181C0062792049647269732D37373700486967DC
:08182C006873636F72653A00F6
:00000001FF
