:100000000C9435000C945D000C945D000C9410056C
:100010000C9489050C9495040C945D000C945D007F
:100020000C945D000C945D000C945D000C945D00DC
:100030000C945D000C9404060C945D000C945D001F
:100040000C945D000C945D000C9463040C943D04CE
:100050000C945D000C945D000C945D000C945D00AC
:100060000C945D000C945D00130611241FBECFEFAD
:10007000D8E0DEBFCDBF11E0A0E0B1E0E4E5FCE1F7
:1000800002C005900D92AC3AB107D9F722E0ACEA74
:10009000B1E001C01D92A935B207E1F710E0C5E358
:1000A000D0E004C02197FE010E94160BC433D10793
:1000B000C9F70E9440060C94280E0C940000AF92E1
:1000C000BF92CF92DF92EF92FF920F931F93CF9345
:1000D000DF936C017B018B01040F151FEB015E01A7
:1000E000AE18BF08C017D10759F06991D601ED913C
:1000F000FC910190F081E02DC6010995892B79F7DB
:10010000C501DF91CF911F910F91FF90EF90DF908C
:10011000CF90BF90AF900895FC01538D448D252F53
:1001200030E0842F90E0821B930B541710F0CF9691
:10013000089501970895FC01918D828D981761F0C3
:10014000A28DAE0FBF2FB11D5D968C91928D9F5FDA
:100150009F73928F90E008958FEF9FEF0895FC01B9
:10016000918D828D981731F0828DE80FF11D858D6C
:1001700090E008958FEF9FEF0895FC01918D228DFF
:10018000892F90E0805C9F4F821B91098F73992784
:100190000895FC01A48DA80FB92FB11DA35ABF4F1C
:1001A0002C91848D90E001968F739927848FA68976
:1001B000B7892C93A089B1898C91837080648C93CA
:1001C000938D848D981306C00288F389E02D808179
:1001D0008F7D80830895EF92FF920F931F93CF93AB
:1001E000DF93EC0181E0888F9B8D8C8D98131AC072
:1001F000E889F989808185FF15C09FB7F894EE8959
:10020000FF896083E889F9898081837080648083B5
:100210009FBF81E090E0DF91CF911F910F91FF9000
:10022000EF900895F62E0B8D10E00F5F1F4F0F73A8
:100230001127E02E8C8D8E110CC00FB607FCFACF63
:10024000E889F989808185FFF5CFCE010E94C90038
:10025000F1CFEB8DEC0FFD2FF11DE35AFF4FF08234
:100260009FB7F8940B8FEA89FB8980818062CFCF9A
:10027000CF93DF93EC01888D8823B9F0AA89BB89DD
:10028000E889F9898C9185FD03C0808186FD0DC0C8
:100290000FB607FCF7CF8C9185FFF2CF808185FFE9
:1002A000EDCFCE010E94C900E9CFDF91CF91089533
:1002B0008091AC019091AD0101969093AD01809336
:1002C000AC0183ED9CEF909385008093840085B111
:1002D0002091000130910101807E822B85B98091AF
:1002E000000190910101959587959093010180936C
:1002F00000018091000190910101892B31F484E08B
:1003000090E090930101809300012091AC01309125
:10031000AD018091AE019091AF012817390799F492
:1003200080916F008E7F80936F001092AD011092CC
:10033000AC0184E090E09093010180930001109261
:100340008500109284000895E0EBF0E080818F77C3
:1003500080838081806480830895E0EBF0E0808179
:100360008F77808380818F7B80830895FC018081DB
:100370009181009711F00C94D20C0895EF92FF92A6
:100380000F931F93CF93DF93EC017B0119821882A7
:100390001B821A821D821C82FB0101900020E9F75A
:1003A00031978F01061B170BB8016F5F7F4F90E0ED
:1003B00080E00E945B0D0097B9F0998388831B83CE
:1003C0000A832C813D81232B11F4FC0110821D83B3
:1003D0000C83B70188819981DF91CF911F910F9193
:1003E000FF90EF900C94210E88819981009711F075
:1003F0000E94D20C198218821D821C821B821A82D2
:10040000DF91CF911F910F91FF90EF9008955E9A29
:100410004BB190E09C0135952795359527952C7328
:10042000437C242B2BB92C9A25E02A95F1F7000068
:100430002C982BB1880F991F880F991F8F73237CDD
:10044000822B8BB92C9A85E08A95F1F700002C98C5
:1004500087EC90E00197F1F700C000000895EF925B
:10046000FF920F931F93CF93DF93CDB7DEB76497BF
:100470000FB6F894DEBF0FBECDBF0097A9F09E0166
:100480002F5F3F4F7901F90130E020E00AE010E0F2
:1004900018161906C4F4B8010E94EE0A81939193CC
:1004A000CB012F5F3F4FF4CF80E364960FB6F894F3
:1004B000DEBF0FBECDBFDF91CF911F910F91FF9097
:1004C000EF900C940702220F331F8701020F131FB6
:1004D0000E151F0541F002501109F8018081805D61
:1004E0000E940702F5CF64960FB6F894DEBF0FBEE8
:1004F000CDBFDF91CF911F910F91FF90EF900895A5
:100500005E989BB144E0849F90011124937C922BD0
:100510009BB92C9A85E08A95F1F700002C9845ED5F
:100520004A95F1F7000008959AB19C639AB9569ADA
:10053000249A5E984BB190E09C01359527953595AE
:1005400027952C73437C242B2BB92C9A25E02A95D4
:10055000F1F700002C982BB1880F991F880F991F75
:100560008F73237C822B8BB92C9A85E08A95F1F7C7
:1005700000002C9825ED2A95F1F7000008950F93BF
:100580001F93CF93DF93DC0114962D913C91213280
:10059000310538F58C01D0E0C0E0F8018481958107
:1005A000C817D907F0F4C031D10519F480EC0E94C6
:1005B0009402D80114968D919C911597C817D9076C
:1005C00020F4ED91FC91309749F41092B701E7EBDC
:1005D000F1E080810E9407022196DFCFEC0FFD1F22
:1005E000F8CFDF91CF911F910F9108950F931F9333
:1005F000CF93DF9300D000D000D0CDB7DEB78C0111
:1006000080EC0E9494026EE471E0CE0101960E949B
:10061000BE01CE0101960E94BF02CE0101960E944A
:10062000B60180EC0E949402C8010E942F0263E48C
:1006300071E0CE0101960E94BE01CE0101960E949A
:10064000BF02CE0101960E94B60126960FB6F8941D
:10065000DEBF0FBECDBFDF91CF911F910F910895E7
:10066000EF92FF920F931F93CF93DF9300D000D0B0
:1006700000D0CDB7DEB780EC0E94940266E471E052
:10068000CE0101960E94BE01CE0101960E94BF02DA
:10069000CE0101960E94B60180EC0E9494028AE28B
:1006A0000E940702F12CE12C10E000E0F701EA5F64
:1006B000FE4F8081803211F40F5F1F4F8091B50192
:1006C0009091B6018017910731F48081803219F042
:1006D00080810E9407028091B5019091B601801738
:1006E000910724F08FEFE81AF80AE0CF26960FB6AC
:1006F000F894DEBF0FBECDBFDF91CF911F910F9158
:10070000FF90EF9008950E94A40183EF8093B300BF
:100710002FE788E391E0215080409040E1F700C04E
:1007200000000C94AD0195B1977098136DC085B120
:10073000876085B98091B3019091B4010E94F6025F
:1007400082E090E090930301809302010E94A40153
:100750008BE08093B3002FEF83EF91E02150804036
:100760009040E1F700C000000E94AD018FE59AEED5
:100770000197F1F700C0000082E68093B3009FEF7D
:100780002BED85E0915020408040E1F700C0000053
:100790000E94AD012091B3013091B4018091B0016C
:1007A0009091B101281739070CF044C08091B30132
:1007B0009091B4019093B1018093B0018FB38F7C7D
:1007C0008FBBF999FECF07B600FCFBCF12BC11BC62
:1007D0008091B0019091B10180BDF894FA9AF99A94
:1007E0007894F999FECF07B600FCFBCF81E090E04A
:1007F00092BD81BD8091B0019091B10190BDF894FE
:10080000FA9AF99A7894089581E090E09093030120
:10081000809302010E94A40183EA8093B3009FEFBA
:1008200023EC89E0915020408040E1F700C00000B7
:100830000C94AD0108950E94DD082EE130E040E007
:1008400050E00E94540A6B5F7F4F7093AF0160933A
:10085000AE011092AD011092AC0183ED9CEF90932C
:1008600085008093840081E08093B201EFE6F0E0A0
:100870008081816080830C9458011F920F920FB683
:100880000F9211242F933F934F935F936F937F9316
:100890008F939F93AF93BF93EF93FF9388EB91E078
:1008A0000E94C900FF91EF91BF91AF919F918F91ED
:1008B0007F916F915F914F913F912F910F900FBE5C
:1008C0000F901F9018951F920F920FB60F92112440
:1008D0002F938F939F93EF93FF93E091C801F09133
:1008E000C9018081E091CE01F091CF0182FD1BC052
:1008F00090818091D1018F5F8F732091D2018217F7
:1009000041F0E091D101F0E0E854FE4F958F8093E3
:10091000D101FF91EF919F918F912F910F900FBE79
:100920000F901F9018958081F4CF1F920F920FB6F1
:100930000F9211242F933F934F935F936F937F9365
:100940008F939F93AF93BF93EF93FF934F9941C0C2
:1009500082E090E09093050180930401609184000F
:100960007091850090E080E00E94350920E030E041
:1009700040E852E40E94960920E030E04AE754E45F
:100980000E94890B20E030E0A9010E94310C6091A7
:1009900084007091850090E087FD2CC080E00E946B
:1009A000350920E030E040E852E40E94960920E05A
:1009B00030E04AE754E40E94890B20E030E040E058
:1009C0005FE30E941D0B0E94FB0B7093B4016093C8
:1009D000B301FF91EF91BF91AF919F918F917F9163
:1009E0006F915F914F913F912F910F900FBE0F909C
:1009F0001F90189580E00E94350920E030E040E823
:100A000052E40E94960920E030E04AE754E40E9454
:100A1000890B20E030E040E05FE30E941C0BD3CF65
:100A20001F920F920FB60F9211242F933F934F9363
:100A30005F936F937F938F939F93AF93BF93EF9346
:100A4000FF931D993FC0109205011092040160911F
:100A500084007091850090E080E00E94350920E0DC
:100A600030E040E852E40E94960920E030E04AE796
:100A700054E40E94890B20E030E0A9010E94310C6F
:100A8000609184007091850090E087FD2CC080E02B
:100A90000E94350920E030E040E852E40E949609C7
:100AA00020E030E04AE754E40E94890B20E030E087
:100AB00040E05FE30E941D0B0E94FB0B7093B401AA
:100AC0006093B301FF91EF91BF91AF919F918F918F
:100AD0007F916F915F914F913F912F910F900FBE3A
:100AE0000F901F90189580E00E94350920E030E0BB
:100AF00040E852E40E94960920E030E04AE754E4DE
:100B00000E94890B20E030E040E05FE30E941C0B74
:100B1000D3CF1F920F920FB60F9211242F933F93B2
:100B20004F935F936F937F938F939F93AF93BF93F5
:100B3000EF93FF93309941C081E090E090930501DD
:100B400080930401609184007091850090E080E0C2
:100B50000E94350920E030E040E852E40E94960906
:100B600020E030E04AE754E40E94890B20E030E0C6
:100B7000A9010E94310C609184007091850090E081
:100B800087FD2CC080E00E94350920E030E040E87D
:100B900052E40E94960920E030E04AE754E40E94C3
:100BA000890B20E030E040E05FE30E941D0B0E94D3
:100BB000FB0B7093B4016093B301FF91EF91BF9170
:100BC000AF919F918F917F916F915F914F913F91E5
:100BD0002F910F900FBE0F901F90189580E00E94EC
:100BE000350920E030E040E852E40E94960920E018
:100BF00030E04AE754E40E94890B20E030E040E016
:100C00005FE30E941C0BD3CF1F920F920FB60F927F
:100C100011248F9381E08093B2018F910F900FBECA
:100C20000F901F901895E8EBF1E01382128288EE86
:100C300093E0A0E0B0E084839583A683B78385E347
:100C400091E09183808385EC90E09587848784ECA4
:100C500090E09787868780EC90E0918B808B81EC89
:100C600090E0938B828B82EC90E0958B848B86EC6A
:100C700090E0978B868B118E128E138E148E0895B2
:100C8000CF93DF9300D000D000D0CDB7DEB7E09196
:100C9000C801F091C90182E08083E091C401F09124
:100CA000C5011082E091C601F091C7018FEC8083ED
:100CB0001092D001E091CC01F091CD0186E08083CB
:100CC000E091CA01F091CB01808180618083E09145
:100CD000CA01F091CB01808188608083E091CA01D4
:100CE000F091CB01808180688083E091CA01F0910E
:100CF000CB0180818F7D80838AB18C638AB9569ABB
:100D0000249A2FEF80E792E0215080409040E1F755
:100D100000C0000083E00E9480028FE19EE4019702
:100D2000F1F700C0000083E00E94800287E592E0B6
:100D30000197F1F700C0000083E00E94800287E580
:100D400092E00197F1F700C0000082E00E9480026B
:100D500088E20E9494028CE00E94940281E00E944A
:100D600094028FE39FE10197F1F700C0000086E055
:100D70000E94940267E571E0CE0101960E94BE01D7
:100D8000CE0101960E94BF02CE0101960E94B601DB
:100D900083E090E0909303018093020180916800CA
:100DA00087608093680080916B00806280936B0005
:100DB00080916C00816080936C0080916D008068F0
:100DC00080936D00389825985798409A2D9A5F9A8D
:100DD00084B1876084B97894809180008C7F8093FF
:100DE000800080918100877E8093810080918100C6
:100DF000856080938100809181008D7F8093810048
:100E000080916F00816080936F0083ED9CEF9093E1
:100E10008500809384000E943003239A239A809156
:100E2000B0008F778093B0008091B0008064809391
:100E3000B0008091B00082608093B0008091B000DB
:100E40008E7F8093B0008091B100877F8093B10046
:100E50008091B10084608093B1008091B1008C7F5B
:100E60008093B1001092B2001092B3000E94AD01C5
:100E700085E0C82ED12C94E0A92EB12C03E010E01F
:100E800026E0E22EF12C8091020190910301823044
:100E9000910509F427C1A0F4009709F408C1813035
:100EA0009105A9F785B1887F85B98091040190915A
:100EB0000501039741F3F0920301E09202013FC064
:100EC0008330910561F08630910509F71092030196
:100ED000109202010E9483030E941B04D4CF8091D0
:100EE00004019091050181309105C1F1C0F0029794
:100EF00051F64F9924C080E80E94940267E571E0A2
:100F0000CE0101960E94BE01CE0101960E94BF0251
:100F1000CE0101960E94B6010E94300310C01D99B7
:100F20000EC08091B5019091B601039769F41092BB
:100F3000B6011092B5010E9430030E948303109302
:100F40000501009304019FCF8091B5019091B601F6
:100F500001969093B6018093B501EDCF3099EFCF14
:100F60002091B5013091B601232BE1F410920301D9
:100F7000109202010E941B0480E80E94940265E620
:100F800071E0CE0101960E94BE01CE0101960E9441
:100F9000BF02CE0101960E94B60190E080E00E945F
:100FA000F602CBCF2091B5013091B6012130310549
:100FB00031F4239B02C02398C0CF239ABECF209147
:100FC000B5013091B6012230310539F5B0920301F7
:100FD000A092020180E80E94940264E771E0CE01D1
:100FE00001960E94BE01CE0101960E94BF02CE0171
:100FF00001960E94B60180EC0E94940262E871E0C2
:10100000CE0101960E94BE01CE0101960E94BF0250
:10101000CE0101960E94B60190CF2091B50130918A
:10102000B6012330310509F088CFD0920301C09278
:1010300002012FB327B712BC11BCF89A20B530E0DB
:101040003093B1012093B00192BD81BDF89A20B5D3
:101050008091B0019091B101922B9093B101809356
:10106000B00181E00E9494028FE39FE10197F1F7C4
:1010700000C0000080E80E9494026FE871E0CE0199
:1010800001960E94BE01CE0101960E94BF02CE01D0
:1010900001960E94B60180EC0E9494028091B001FA
:1010A0009091B1010E942F0263E471E0A9CF809179
:1010B000B201882321F00E9458011092B201809160
:1010C0000401909105018130910531F048F00297BB
:1010D00009F0D9CE81E001C082E00E9493032FCFB6
:1010E00084E0FBCF8091040190910501039741F0CA
:1010F000F0920301E09202011093050100930401B4
:101100004DE050E06AE971E088EB91E00E945F00F9
:1011100042E050E068EA71E088EB91E00E945F00F5
:10112000B2CE8F929F92AF92BF92CF92DF92EF9208
:10113000FF92CF93DF93EC01688179818A819B8153
:10114000611571058105910521F464E279ED8BE566
:1011500097E02DE133EF41E050E00E94540A49014D
:101160005A019B01AC01A7EAB1E40E94730A6B012A
:101170007C01ACEEB4EFA50194010E94810AC60E79
:10118000D71EE81EF91EF7FE06C081E0C81AD10876
:10119000E10880E8F80AC882D982EA82FB82C701A6
:1011A000B6019F77DF91CF91FF90EF90DF90CF90C6
:1011B000BF90AF909F908F9008958F929F92AF9223
:1011C000BF92CF92DF92EF92FF92609127017091D0
:1011D00028018091290190912A01611571058105ED
:1011E000910521F464E279ED8BE597E02DE133EF91
:1011F00041E050E00E94540A49015A019B01AC01B0
:10120000A7EAB1E40E94730A6B017C01ACEEB4EF73
:10121000A50194010E94810AC60ED71EE81EF91E80
:10122000F7FE06C081E0C81AD108E10880E8F80A94
:10123000C0922701D0922801E0922901F0922A0160
:10124000C701B6019F77FF90EF90DF90CF90BF90DE
:10125000AF909F908F90089560932701709328011D
:101260008093290190932A010895E89409C097FB7F
:101270003EF490958095709561957F4F8F4F9F4F6D
:101280009923A9F0F92F96E9BB279395F6958795B1
:1012900077956795B795F111F8CFFAF4BB0F11F474
:1012A00060FF1BC06F5F7F4F8F4F9F4F16C088231B
:1012B00011F096E911C0772321F09EE8872F762F51
:1012C00005C0662371F096E8862F70E060E02AF092
:1012D0009A95660F771F881FDAF7880F969587957E
:1012E00097F90895990F0008550FAA0BE0E8FEEF53
:1012F00016161706E807F907C0F012161306E407DA
:10130000F50798F0621B730B840B950B39F40A26D2
:1013100061F0232B242B252B21F408950A2609F4B0
:10132000A140A6958FEF811D811D08950E94A909F6
:101330000C941A0A0E940C0A38F00E94130A20F03A
:10134000952311F00C94030A0C94090A11240C94AF
:101350004E0A0E942B0A70F3959FC1F3950F50E03F
:10136000551F629FF001729FBB27F00DB11D639F57
:10137000AA27F00DB11DAA1F649F6627B00DA11DFD
:10138000661F829F2227B00DA11D621F739FB00DA3
:10139000A11D621F839FA00D611D221F749F332713
:1013A000A00D611D231F849F600D211D822F762FAC
:1013B0006A2F11249F5750409AF0F1F088234AF089
:1013C000EE0FFF1FBB1F661F771F881F91505040F5
:1013D000A9F79E3F510580F00C94030A0C944E0A25
:1013E0005F3FE4F3983ED4F3869577956795B7957C
:1013F000F795E7959F5FC1F7FE2B880F911D969596
:10140000879597F9089597F99F6780E870E060E005
:1014100008959FEF80EC089500240A94161617068D
:1014200018060906089500240A94121613061406D5
:1014300005060895092E0394000C11F4882352F038
:10144000BB0F40F4BF2B11F460FF04C06F5F7F4FF0
:101450008F4F9F4F089557FD9058440F551F59F0D7
:101460005F3F71F04795880F97FB991F61F09F3F91
:1014700079F087950895121613061406551FF2CFBA
:101480004695F1DF08C0161617061806991FF1CF0A
:1014900086957105610508940895E894BB27662731
:1014A0007727CB0197F90895052E97FB1EF400943A
:1014B0000E946B0A57FD07D00E94BD0A07FC03D0AB
:1014C0004EF40C946B0A50954095309521953F4F02
:1014D0004F4F5F4F089590958095709561957F4F20
:1014E0008F4F9F4F08950E94DF0AA59F900DB49FD4
:1014F000900DA49F800D911D11240895B7FF0C94A9
:10150000730A0E94730A821B930B08952F923F92D5
:101510004F925F926F927F928F929F92AF92BF9203
:10152000CF92DF92EF92FF920F931F93CF93DF93AF
:10153000CDB7DEB7CA1BDB0B0FB6F894DEBF0FBE0C
:10154000CDBF09942A88398848885F846E847D8459
:101550008C849B84AA84B984C884DF80EE80FD805B
:101560000C811B81AA81B981CE0FD11D0FB6F894D1
:10157000DEBF0FBECDBFED010895A1E21A2EAA1B5A
:10158000BB1BFD010DC0AA1FBB1FEE1FFF1FA21733
:10159000B307E407F50720F0A21BB30BE40BF50B30
:1015A000661F771F881F991F1A9469F760957095B9
:1015B000809590959B01AC01BD01CF010895A29F3C
:1015C000B001B39FC001A39F700D811D1124911D17
:1015D000B29F700D811D1124911D089597FB072E58
:1015E00016F4009407D077FD09D00E94020B07FC87
:1015F00005D03EF4909581959F4F08957095619523
:101600007F4F0895AA1BBB1B51E107C0AA1FBB1F38
:10161000A617B70710F0A61BB70B881F991F5A957E
:10162000A9F780959095BC01CD010895EE0FFF1F9D
:101630000590F491E02D09945058BB27AA270E94E9
:10164000340B0C941A0A0E940C0A38F00E94130AF8
:1016500020F039F49F3F19F426F40C94090A0EF493
:10166000E095E7FB0C94030AE92F0E942B0A58F33C
:10167000BA17620773078407950720F079F4A6F577
:101680000C944D0A0EF4E0950B2EBA2FA02D0B01F1
:10169000B90190010C01CA01A0011124FF27591BB7
:1016A00099F0593F50F4503E68F11A16F040A22FBD
:1016B000232F342F4427585FF3CF4695379527952E
:1016C000A795F0405395C9F77EF41F16BA0B620B2D
:1016D000730B840BBAF09150A1F0FF0FBB1F661F74
:1016E000771F881FC2F70EC0BA0F621F731F841FB7
:1016F00048F4879577956795B795F7959E3F08F0DD
:10170000B0CF9395880F08F09927EE0F979587959E
:1017100008950E949D0B0C941A0A0E94130A58F017
:101720000E940C0A40F029F45F3F29F00C94030A50
:1017300051110C944E0A0C94090A0E942B0A68F36A
:101740009923B1F3552391F3951B550BBB27AA277A
:1017500062177307840738F09F5F5F4F220F331FB4
:10176000441FAA1FA9F335D00E2E3AF0E0E832D07C
:1017700091505040E695001CCAF72BD0FE2F29D07F
:10178000660F771F881FBB1F261737074807AB0751
:10179000B0E809F0BB0B802DBF01FF2793585F4FC6
:1017A0003AF09E3F510578F00C94030A0C944E0ACF
:1017B0005F3FE4F3983ED4F3869577956795B795A8
:1017C000F7959F5FC9F7880F911D9695879597F9B3
:1017D0000895E1E0660F771F881FBB1F621773072C
:1017E0008407BA0720F0621B730B840BBA0BEE1F41
:1017F00088F7E09508950E94020C6894B1110C944A
:101800004E0A08950E94330A88F09F5798F0B92F26
:101810009927B751B0F0E1F0660F771F881F991F25
:101820001AF0BA95C9F714C0B13091F00E944D0A70
:10183000B1E008950C944D0A672F782F8827B85F80
:1018400039F0B93FCCF3869577956795B395D9F77D
:101850003EF490958095709561957F4F8F4F9F4F87
:1018600008950E94720908F48FEF08950F931F9353
:10187000CF93DF938230910510F482E090E0E09105
:101880005702F091580230E020E0B0E0A0E030973D
:1018900099F42115310509F44AC0281B390B24306D
:1018A0003105D8F58A819B816115710589F1FB01AC
:1018B00093838283FE0111C0408151810281138193
:1018C00048175907E0F04817590799F4109761F045
:1018D00012960C93129713961C933296CF01DF91B8
:1018E000CF911F910F9108950093570210935802C2
:1018F000F4CF2115310551F04217530738F0A901F3
:10190000DB019A01BD01DF01F801C1CFEF01F9CF81
:101910009093580280935702CDCFFE01E20FF31F40
:10192000819391932250310939832883D7CF209115
:10193000550230915602232B41F420912D01309114
:101940002E01309356022093550220912B013091A5
:101950002C012115310541F42DB73EB740912F01DF
:1019600050913001241B350BE0915502F091560245
:10197000E217F307A0F42E1B3F0B2817390778F066
:10198000AC014E5F5F4F2417350748F04E0F5F1FC5
:101990005093560240935502819391939FCFF0E06C
:1019A000E0E09CCFCF93DF930097E9F0FC01329702
:1019B00013821282A0915702B0915802ED0130E0DB
:1019C00020E01097A1F420813181820F931F209194
:1019D0005502309156022817390709F061C0F0937B
:1019E0005602E0935502DF91CF910895EA01CE1798
:1019F000DF07E8F54A815B819E0141155105B1F78A
:101A0000E901FB83EA8349915991C40FD51FEC1773
:101A1000FD0761F4808191810296840F951FE90191
:101A200099838883828193819B838A83F0E0E0E0BD
:101A300012968D919C9113970097B9F52D913C9139
:101A40001197CD010296820F931F2091550230917C
:101A500056022817390739F6309751F51092580277
:101A600010925702B0935602A0935502BCCFD38375
:101A7000C28340815181840F951FC817D90761F433
:101A80004E5F5F4F88819981480F591F5183408372
:101A90008A819B81938382832115310509F0B0CF20
:101AA000F0935802E09357029ECFFD01DC01C0CFB6
:101AB00013821282D7CFB0E0A0E0E1E6FDE00C9403
:101AC000880A8C01009751F4CB010E94360C8C01DE
:101AD000C801CDB7DEB7E0E10C94A40AFC01E60F23
:101AE000F71F9C0122503109E217F30708F49DC04B
:101AF000D901CD91DC911197C617D70798F0C53061
:101B0000D10530F3CE0104978617970708F3C61B5B
:101B1000D70B2297C193D1936D937C93CF010E94F1
:101B2000D20CD6CF5B01AC1ABD0A4C018C0E9D1EA7
:101B3000A0915702B0915802512C412CF12CE12C6C
:101B4000109731F5809155029091560288159905AC
:101B500009F05CC04616570608F058C080912B016A
:101B600090912C01009741F48DB79EB740912F01C1
:101B700050913001841B950BE817F90708F055C008
:101B8000F0935602E0935502F90171836083A0CF70
:101B90008D919C91119712966C90129713967C9050
:101BA0001397A815B90559F56C0142E0C40ED11C74
:101BB000CA14DB0420F1AC014A195B09DA01129660
:101BC000159780F06282738251834083D9016D93AF
:101BD0007C93E114F10471F0D7011396FC93EE931A
:101BE000129776CF22968C0F9D1FF90191838083E7
:101BF000F301EFCFF0935802E093570269CF4816F4
:101C0000590608F42C017D01D3019ACFCB010E9423
:101C1000360C7C01009749F0AE01B8010E94180E05
:101C2000C8010E94D20C870153CF10E000E050CFD2
:101C3000FB01DC0102C001900D9241505040D8F7E9
:101C40000895FB01DC0101900D920020E1F7089559
:041C5000F894FFCF36
:101C5400040003000300504C4159204D5554452FB6
:101C6400554E4D5554452041424F555420484947FF
:101C74004853434F524520010000000000590280A0
:101C84000000000000EB005F008C003801BD009BE9
:101C940000AF006D73002020202020202020202071
:101CA400202020202020005265616374696F6E201B
:101CB40047616D65005265616374696F6E20546994
:101CC4006D653A00412073696D706C652047616DE4
:101CD400650062792049647269732D37373700488B
:101CE40069676873636F72653A0077696E6E696ECF
:0C1CF4006720736F756E64000D0A00001D
:00000001FF
